:100000000C945E000C9486000C9486000C94860080
:100010000C9486000C9486000C9486000C94860048
:100020000C9486000C9486000C9486000C94860038
:100030000C9486000C9486000C9486000C94860028
:100040000C944E010C9486000C9486000C9486004F
:100050000C9486000C9486000C9486000C94860008
:100060000C9486000C948600000000080002010039
:100070000003040700000000000000000000000072
:10008000250028002B0000000000240027002A0083
:10009000040404040404040402020202020203032E
:1000A0000303030301020408102040800102040836
:1000B00010200102040810200902520211241FBE60
:1000C000CFEFD8E0DEBFCDBF21E0A0E2B1E001C0BC
:1000D0001D92A333B207E1F711E0A0E0B1E0EEE238
:1000E000F9E002C005900D92A032B107D9F710E0F7
:1000F000CDE5D0E004C02197FE010E949202CC35EC
:10010000D107C9F70E9498010C948A040C9400004E
:1001100090E0FC01EC55FF4F249180579F4FFC016C
:100120008491882399F090E0880F991FFC01EA5789
:10013000FF4FA591B491FC01E458FF4F8591949134
:100140008FB7F894EC91E22BEC938FBF089590E079
:10015000FC01E859FF4F2491FC01EC55FF4F34910D
:10016000FC01E057FF4FE491EE23C9F0222339F060
:10017000233001F1A8F4213019F1223029F1F0E007
:10018000EE0FFF1FE458FF4FA591B4918FB7F8947D
:10019000EC91611126C030953E233C938FBF0895AA
:1001A0002730A9F02830C9F0243049F78091800029
:1001B0008F7D03C0809180008F7780938000DFCF98
:1001C00084B58F7784BDDBCF84B58F7DFBCF8091E5
:1001D000B0008F778093B000D2CF8091B0008F7D38
:1001E000F9CF3E2BDACF3FB7F89480912B01909155
:1001F0002C01A0912D01B0912E0126B5A89B05C020
:100200002F3F19F00196A11DB11D3FBFBA2FA92F95
:10021000982F8827BC01CD01620F711D811D911D92
:1002200042E0660F771F881F991F4A95D1F70895FE
:100230008F929F92AF92BF92CF92DF92EF92FF92F6
:100240000E94F3004B015C0184EFC82EDD24D3949F
:10025000E12CF12C0E94F300681979098A099B09A5
:10026000683E734081059105A8F321E0C21AD108C8
:10027000E108F10888EE880E83E0981EA11CB11CED
:10028000C114D104E104F10429F7FF90EF90DF904D
:10029000CF90BF90AF909F908F9008951F920F9234
:1002A0000FB60F9211242F933F938F939F93AF9389
:1002B000BF938091270190912801A0912901B091CD
:1002C0002A013091260123E0230F2D3758F501969E
:1002D000A11DB11D20932601809327019093280131
:1002E000A0932901B0932A0180912B0190912C01B8
:1002F000A0912D01B0912E010196A11DB11D8093F9
:100300002B0190932C01A0932D01B0932E01BF914E
:10031000AF919F918F913F912F910F900FBE0F90B2
:100320001F90189526E8230F0296A11DB11DD2CF6C
:10033000789484B5826084BD84B5816084BD85B5C0
:10034000826085BD85B5816085BD80916E008160CC
:1003500080936E0010928100809181008260809372
:100360008100809181008160809381008091800074
:100370008160809380008091B10084608093B1009F
:100380008091B00081608093B00080917A00846099
:1003900080937A0080917A00826080937A008091C5
:1003A0007A00816080937A0080917A0080688093DF
:1003B0007A001092C10088E00E94880089E00E94C3
:1003C00088008AE00E948800C0E0D0E061E088E018
:1003D0000E94A7000E94180160E088E00E94A70028
:1003E00061E089E00E94A7000E94180160E089E0B6
:1003F0000E94A70061E08AE00E94A7000E94180105
:1004000060E08AE00E94A700209701F30E940000AC
:10041000DDCF109221011092200110922301109241
:100420002201109225011092240169E170E090E010
:1004300080E00E94BD03009701F190932101809319
:10044000200128E130E03093230120932201209104
:10045000240130912501232B11F4FC01108288E145
:1004600090E0909325018093240166E071E08091F3
:100470002001909121010C9483048091200190919E
:100480002101009711F00E94340310922101109273
:100490002001109225011092240110922301109244
:1004A000220108958091200190912101009711F07F
:1004B0000C94340308952F923F924F925F926F9263
:1004C0007F928F929F92AF92BF92CF92DF92EF92E4
:1004D000FF920F931F93CF93DF93CDB7DEB7CA1B65
:1004E000DB0B0FB6F894DEBF0FBECDBF09942A8890
:1004F000398848885F846E847D848C849B84AA8438
:10050000B984C884DF80EE80FD800C811B81AA81C4
:10051000B981CE0FD11D0FB6F894DEBF0FBECDBF8F
:10052000ED010895EE0FFF1F0590F491E02D099461
:100530000F931F93CF93DF938230910510F482E0E5
:1005400090E0E0913101F091320130E020E0B0E044
:10055000A0E0309799F42115310509F44AC0281B11
:10056000390B24303105D8F58A819B8161157105DD
:1005700089F1FB0193838283FE0111C04081518187
:100580000281138148175907E0F04817590799F479
:10059000109761F012960C93129713961C93329653
:1005A000CF01DF91CF911F910F91089500933101F9
:1005B00010933201F4CF2115310551F04217530742
:1005C00038F0A901DB019A01BD01DF01F801C1CFBB
:1005D000EF01F9CF9093320180933101CDCFFE012D
:1005E000E20FF31F819391932250310939832883BD
:1005F000D7CF20912F0130913001232B41F420914E
:100600000201309103013093300120932F0120919A
:100610000001309101012115310541F42DB73EB79C
:100620004091040150910501241B350BE0912F01ED
:10063000F0913001E217F307A0F42E1B3F0B2817AF
:10064000390778F0AC014E5F5F4F2417350748F04B
:100650004E0F5F1F5093300140932F018193919370
:100660009FCFF0E0E0E09CCFCF93DF930097E9F0DD
:10067000FC01329713821282A0913101B0913201B4
:10068000ED0130E020E01097A1F420813181820F4C
:10069000931F20912F01309130012817390709F05D
:1006A00061C0F0933001E0932F01DF91CF91089565
:1006B000EA01CE17DF07E8F54A815B819E0141150B
:1006C0005105B1F7E901FB83EA8349915991C40FC0
:1006D000D51FEC17FD0761F4808191810296840F8C
:1006E000951FE90199838883828193819B838A8303
:1006F000F0E0E0E012968D919C9113970097B9F588
:100700002D913C911197CD010296820F931F20915C
:100710002F01309130012817390739F6309751F5FC
:100720001092320110923101B0933001A0932F0149
:10073000BCCFD383C28340815181840F951FC817DA
:10074000D90761F44E5F5F4F88819981480F591F27
:10075000518340838A819B81938382832115310554
:1007600009F0B0CFF0933201E09331019ECFFD014B
:10077000DC01C0CF13821282D7CFB0E0A0E0E3EC5F
:10078000F3E00C945D028C01009751F4CB010E94C0
:1007900098028C01C801CDB7DEB7E0E10C94790274
:1007A000FC01E60FF71F9C0122503109E217F30705
:1007B00008F49DC0D901CD91DC911197C617D707D8
:1007C00098F0C530D10530F3CE010497861797070E
:1007D00008F3C61BD70B2297C193D1936D937C93DB
:1007E000CF010E943403D6CF5B01AC1ABD0A4C0185
:1007F0008C0E9D1EA0913101B0913201512C412CE3
:10080000F12CE12C109731F580912F01909130015E
:100810008815990509F05CC04616570608F058C0BF
:100820008091000190910101009741F48DB79EB72E
:100830004091040150910501841B950BE817F907BD
:1008400008F055C0F0933001E0932F01F901718356
:100850006083A0CF8D919C91119712966C90129706
:1008600013967C901397A815B90559F56C0142E0D1
:10087000C40ED11CCA14DB0420F1AC014A195B0977
:10088000DA011296159780F0628273825183408359
:10089000D9016D937C93E114F10471F0D7011396A3
:1008A000FC93EE93129776CF22968C0F9D1FF90141
:1008B00091838083F301EFCFF0933201E093310114
:1008C00069CF4816590608F42C017D01D3019ACF4F
:1008D000CB010E9498027C01009749F0AE01B8015B
:1008E0000E947A04C8010E943403870153CF10E0AC
:1008F00000E050CFFB01DC0102C001900D9241509D
:100900005040D8F70895FB01DC0101900D920020C2
:10091000E1F7089510E0CDE5D0E004C0FE010E94AB
:0E09200092022196CE35D107C9F7F894FFCF89
:10092E000000330180005768617420636F6C6F752F
:10093E007220646F20796F752077616E743F0000AE
:00000001FF
